{
  "address": "0x5FbDB2315678afecb367f032d93F642f64180aa3",
  "abi": [
    {
      "inputs": [],
      "stateMutability": "nonpayable",
      "type": "constructor"
    },
    {
      "inputs": [],
      "name": "USD",
      "outputs": [
        {
          "internalType": "uint256",
          "name": "",
          "type": "uint256"
        }
      ],
      "stateMutability": "view",
      "type": "function"
    },
    {
      "inputs": [],
      "name": "depositFund",
      "outputs": [],
      "stateMutability": "payable",
      "type": "function"
    },
    {
      "inputs": [
        {
          "internalType": "address payable",
          "name": "_to",
          "type": "address"
        }
      ],
      "name": "destroyContract",
      "outputs": [],
      "stateMutability": "nonpayable",
      "type": "function"
    },
    {
      "inputs": [],
      "name": "getBalalnce",
      "outputs": [
        {
          "internalType": "uint256",
          "name": "",
          "type": "uint256"
        }
      ],
      "stateMutability": "view",
      "type": "function"
    },
    {
      "inputs": [],
      "name": "owner",
      "outputs": [
        {
          "internalType": "address payable",
          "name": "",
          "type": "address"
        }
      ],
      "stateMutability": "view",
      "type": "function"
    },
    {
      "inputs": [
        {
          "internalType": "address",
          "name": "_to",
          "type": "address"
        },
        {
          "internalType": "uint256",
          "name": "_amount",
          "type": "uint256"
        }
      ],
      "name": "withdrawFund",
      "outputs": [],
      "stateMutability": "nonpayable",
      "type": "function"
    }
  ],
  "transactionHash": "0xc9d13dcc7d6c6f983227b60791ddaae664d273bcc3c8c477b9501a422670393b",
  "args": [],
  "numDeployments": 1,
  "solcInputHash": "f55db539f2181e6005ecbdc6e0df8087",
  "bytecode": "0x6080604052678ac7230489e8000060015534801561001c57600080fd5b503373ffffffffffffffffffffffffffffffffffffffff1660008054906101000a90505050610725806100506000396000f3fe6080604052600436106100555760003560e01c8063016a37381461005a5780631bf6c21b1461008357806343525266146100ae5780638d0d8cb6146100d95780638da5cb5b146100e3578063f7c8d2211461010e575b600080fd5b34801561006657600080fd5b50610081600480360381019061007c91906103f9565b610137565b005b34801561008f57600080fd5b506100986101de565b6040516100a5919061043f565b60405180910390f35b3480156100ba57600080fd5b506100c36101e4565b6040516100d0919061043f565b60405180910390f35b6100e16101ec565b005b3480156100ef57600080fd5b506100f8610233565b6040516101059190610469565b60405180910390f35b34801561011a57600080fd5b50610135600480360381019061013091906104ee565b610257565b005b60008054906101000a900473ffffffffffffffffffffffffffffffffffffffff1673ffffffffffffffffffffffffffffffffffffffff163373ffffffffffffffffffffffffffffffffffffffff16146101c5576040517f08c379a00000000000000000000000000000000000000000000000000000000081526004016101bc9061058b565b60405180910390fd5b8073ffffffffffffffffffffffffffffffffffffffff16ff5b60015481565b600047905090565b600154341015610231576040517f08c379a0000000000000000000000000000000000000000000000000000000008152600401610228906105f7565b60405180910390fd5b565b60008054906101000a900473ffffffffffffffffffffffffffffffffffffffff1681565b60008054906101000a900473ffffffffffffffffffffffffffffffffffffffff1673ffffffffffffffffffffffffffffffffffffffff163373ffffffffffffffffffffffffffffffffffffffff16146102e5576040517f08c379a00000000000000000000000000000000000000000000000000000000081526004016102dc9061058b565b60405180910390fd5b60008273ffffffffffffffffffffffffffffffffffffffff168260405161030b90610648565b60006040518083038185875af1925050503d8060008114610348576040519150601f19603f3d011682016040523d82523d6000602084013e61034d565b606091505b5050905080610391576040517f08c379a0000000000000000000000000000000000000000000000000000000008152600401610388906106cf565b60405180910390fd5b505050565b600080fd5b600073ffffffffffffffffffffffffffffffffffffffff82169050919050565b60006103c68261039b565b9050919050565b6103d6816103bb565b81146103e157600080fd5b50565b6000813590506103f3816103cd565b92915050565b60006020828403121561040f5761040e610396565b5b600061041d848285016103e4565b91505092915050565b6000819050919050565b61043981610426565b82525050565b60006020820190506104546000830184610430565b92915050565b610463816103bb565b82525050565b600060208201905061047e600083018461045a565b92915050565b600061048f8261039b565b9050919050565b61049f81610484565b81146104aa57600080fd5b50565b6000813590506104bc81610496565b92915050565b6104cb81610426565b81146104d657600080fd5b50565b6000813590506104e8816104c2565b92915050565b6000806040838503121561050557610504610396565b5b6000610513858286016104ad565b9250506020610524858286016104d9565b9150509250929050565b600082825260208201905092915050565b7f4e6f74204f776e65720000000000000000000000000000000000000000000000600082015250565b600061057560098361052e565b91506105808261053f565b602082019050919050565b600060208201905081810360008301526105a481610568565b9050919050565b7f616464206d6f7265204574680000000000000000000000000000000000000000600082015250565b60006105e1600c8361052e565b91506105ec826105ab565b602082019050919050565b60006020820190508181036000830152610610816105d4565b9050919050565b600081905092915050565b50565b6000610632600083610617565b915061063d82610622565b600082019050919050565b600061065382610625565b9150819050919050565b7f686176696e67206973737565732077697468207472616e73616374696f6e206160008201527f7420746869732074696d65000000000000000000000000000000000000000000602082015250565b60006106b9602b8361052e565b91506106c48261065d565b604082019050919050565b600060208201905081810360008301526106e8816106ac565b905091905056fea2646970667358221220439efaa40858e7bd4261fbe8a42195be3d5b0b5da57633992946dcf96aa0976e64736f6c63430008090033",
  "devdoc": {
    "kind": "dev",
    "methods": {},
    "version": 1
  },
  "userdoc": {
    "kind": "user",
    "methods": {},
    "version": 1
  },
  "storageLayout": {
    "storage": [
      {
        "astId": 4,
        "contract": "contracts/PiggyBank.sol:PiggyBank",
        "label": "owner",
        "offset": 0,
        "slot": "0",
        "type": "t_address_payable"
      },
      {
        "astId": 11,
        "contract": "contracts/PiggyBank.sol:PiggyBank",
        "label": "USD",
        "offset": 0,
        "slot": "1",
        "type": "t_uint256"
      }
    ],
    "types": {
      "t_address_payable": {
        "encoding": "inplace",
        "label": "address payable",
        "numberOfBytes": "20"
      },
      "t_uint256": {
        "encoding": "inplace",
        "label": "uint256",
        "numberOfBytes": "32"
      }
    }
  }
}