{
  "address": "0xAD2bc991b3394C236841385f5ef16090a7b1264C",
  "abi": [
    {
      "inputs": [
        {
          "internalType": "address",
          "name": "priceFeedAddress",
          "type": "address"
        }
      ],
      "stateMutability": "nonpayable",
      "type": "constructor"
    },
    {
      "inputs": [],
      "name": "USD",
      "outputs": [
        {
          "internalType": "uint256",
          "name": "",
          "type": "uint256"
        }
      ],
      "stateMutability": "view",
      "type": "function"
    },
    {
      "inputs": [],
      "name": "depositFund",
      "outputs": [],
      "stateMutability": "payable",
      "type": "function"
    },
    {
      "inputs": [
        {
          "internalType": "address payable",
          "name": "_to",
          "type": "address"
        }
      ],
      "name": "destroyContract",
      "outputs": [],
      "stateMutability": "nonpayable",
      "type": "function"
    },
    {
      "inputs": [],
      "name": "getBalalnce",
      "outputs": [
        {
          "internalType": "uint256",
          "name": "",
          "type": "uint256"
        }
      ],
      "stateMutability": "view",
      "type": "function"
    },
    {
      "inputs": [],
      "name": "getVersion",
      "outputs": [
        {
          "internalType": "uint256",
          "name": "",
          "type": "uint256"
        }
      ],
      "stateMutability": "view",
      "type": "function"
    },
    {
      "inputs": [],
      "name": "owner",
      "outputs": [
        {
          "internalType": "address payable",
          "name": "",
          "type": "address"
        }
      ],
      "stateMutability": "view",
      "type": "function"
    },
    {
      "inputs": [],
      "name": "priceFeed",
      "outputs": [
        {
          "internalType": "contract AggregatorV3Interface",
          "name": "",
          "type": "address"
        }
      ],
      "stateMutability": "view",
      "type": "function"
    },
    {
      "inputs": [
        {
          "internalType": "address",
          "name": "_to",
          "type": "address"
        },
        {
          "internalType": "uint256",
          "name": "_amount",
          "type": "uint256"
        }
      ],
      "name": "withdrawFund",
      "outputs": [],
      "stateMutability": "nonpayable",
      "type": "function"
    }
  ],
  "transactionHash": "0xd383ef9951b2bc5330cf658d0f9679f3293a2c0b42ad33c558375750fc42f20f",
  "args": [
    "0xD4a33860578De61DBAbDc8BFdb98FD742fA7028e"
  ],
  "numDeployments": 2,
  "solcInputHash": "ea4a1243a6aceb6f387e46f03ca49f1b",
  "bytecode": "0x6080604052678ac7230489e8000060015534801561001c57600080fd5b50604051610e78380380610e78833981810160405281019061003e919061010c565b80600260006101000a81548173ffffffffffffffffffffffffffffffffffffffff021916908373ffffffffffffffffffffffffffffffffffffffff1602179055503373ffffffffffffffffffffffffffffffffffffffff1660008054906101000a9050505050610139565b600080fd5b600073ffffffffffffffffffffffffffffffffffffffff82169050919050565b60006100d9826100ae565b9050919050565b6100e9816100ce565b81146100f457600080fd5b50565b600081519050610106816100e0565b92915050565b600060208284031215610122576101216100a9565b5b6000610130848285016100f7565b91505092915050565b610d30806101486000396000f3fe60806040526004361061007b5760003560e01c8063741bef1a1161004e578063741bef1a1461012a5780638d0d8cb6146101555780638da5cb5b1461015f578063f7c8d2211461018a5761007b565b8063016a3738146100805780630d8e6e2c146100a95780631bf6c21b146100d457806343525266146100ff575b600080fd5b34801561008c57600080fd5b506100a760048036038101906100a29190610655565b6101b3565b005b3480156100b557600080fd5b506100be61025a565b6040516100cb919061069b565b60405180910390f35b3480156100e057600080fd5b506100e96102f8565b6040516100f6919061069b565b60405180910390f35b34801561010b57600080fd5b506101146102fe565b604051610121919061069b565b60405180910390f35b34801561013657600080fd5b5061013f610306565b60405161014c9190610715565b60405180910390f35b61015d61032c565b005b34801561016b57600080fd5b50610174610399565b604051610181919061073f565b60405180910390f35b34801561019657600080fd5b506101b160048036038101906101ac91906107c4565b6103bd565b005b60008054906101000a900473ffffffffffffffffffffffffffffffffffffffff1673ffffffffffffffffffffffffffffffffffffffff163373ffffffffffffffffffffffffffffffffffffffff1614610241576040517f08c379a000000000000000000000000000000000000000000000000000000000815260040161023890610861565b60405180910390fd5b8073ffffffffffffffffffffffffffffffffffffffff16ff5b60008073d4a33860578de61dbabdc8bfdb98fd742fa7028e90508073ffffffffffffffffffffffffffffffffffffffff166354fd4d506040518163ffffffff1660e01b815260040160206040518083038186803b1580156102ba57600080fd5b505afa1580156102ce573d6000803e3d6000fd5b505050506040513d601f19601f820116820180604052508101906102f29190610896565b91505090565b60015481565b600047905090565b600260009054906101000a900473ffffffffffffffffffffffffffffffffffffffff1681565b60015461035673d4a33860578de61dbabdc8bfdb98fd742fa7028e346104fc90919063ffffffff16565b1015610397576040517f08c379a000000000000000000000000000000000000000000000000000000000815260040161038e9061090f565b60405180910390fd5b565b60008054906101000a900473ffffffffffffffffffffffffffffffffffffffff1681565b60008054906101000a900473ffffffffffffffffffffffffffffffffffffffff1673ffffffffffffffffffffffffffffffffffffffff163373ffffffffffffffffffffffffffffffffffffffff161461044b576040517f08c379a000000000000000000000000000000000000000000000000000000000815260040161044290610861565b60405180910390fd5b60008273ffffffffffffffffffffffffffffffffffffffff168260405161047190610960565b60006040518083038185875af1925050503d80600081146104ae576040519150601f19603f3d011682016040523d82523d6000602084013e6104b3565b606091505b50509050806104f7576040517f08c379a00000000000000000000000000000000000000000000000000000000081526004016104ee906109e7565b60405180910390fd5b505050565b60008061050883610538565b90506000670de0b6b3a764000085836105219190610a36565b61052b9190610abf565b9050809250505092915050565b60008073d4a33860578de61dbabdc8bfdb98fd742fa7028e905060008173ffffffffffffffffffffffffffffffffffffffff1663feaf968c6040518163ffffffff1660e01b815260040160a06040518083038186803b15801561059a57600080fd5b505afa1580156105ae573d6000803e3d6000fd5b505050506040513d601f19601f820116820180604052508101906105d29190610b68565b5050509150506402540be400816105e99190610be3565b92505050919050565b600080fd5b600073ffffffffffffffffffffffffffffffffffffffff82169050919050565b6000610622826105f7565b9050919050565b61063281610617565b811461063d57600080fd5b50565b60008135905061064f81610629565b92915050565b60006020828403121561066b5761066a6105f2565b5b600061067984828501610640565b91505092915050565b6000819050919050565b61069581610682565b82525050565b60006020820190506106b0600083018461068c565b92915050565b6000819050919050565b60006106db6106d66106d1846105f7565b6106b6565b6105f7565b9050919050565b60006106ed826106c0565b9050919050565b60006106ff826106e2565b9050919050565b61070f816106f4565b82525050565b600060208201905061072a6000830184610706565b92915050565b61073981610617565b82525050565b60006020820190506107546000830184610730565b92915050565b6000610765826105f7565b9050919050565b6107758161075a565b811461078057600080fd5b50565b6000813590506107928161076c565b92915050565b6107a181610682565b81146107ac57600080fd5b50565b6000813590506107be81610798565b92915050565b600080604083850312156107db576107da6105f2565b5b60006107e985828601610783565b92505060206107fa858286016107af565b9150509250929050565b600082825260208201905092915050565b7f4e6f74204f776e65720000000000000000000000000000000000000000000000600082015250565b600061084b600983610804565b915061085682610815565b602082019050919050565b6000602082019050818103600083015261087a8161083e565b9050919050565b60008151905061089081610798565b92915050565b6000602082840312156108ac576108ab6105f2565b5b60006108ba84828501610881565b91505092915050565b7f616464206d6f7265204574680000000000000000000000000000000000000000600082015250565b60006108f9600c83610804565b9150610904826108c3565b602082019050919050565b60006020820190508181036000830152610928816108ec565b9050919050565b600081905092915050565b50565b600061094a60008361092f565b91506109558261093a565b600082019050919050565b600061096b8261093d565b9150819050919050565b7f686176696e67206973737565732077697468207472616e73616374696f6e206160008201527f7420746869732074696d65000000000000000000000000000000000000000000602082015250565b60006109d1602b83610804565b91506109dc82610975565b604082019050919050565b60006020820190508181036000830152610a00816109c4565b9050919050565b7f4e487b7100000000000000000000000000000000000000000000000000000000600052601160045260246000fd5b6000610a4182610682565b9150610a4c83610682565b9250817fffffffffffffffffffffffffffffffffffffffffffffffffffffffffffffffff0483118215151615610a8557610a84610a07565b5b828202905092915050565b7f4e487b7100000000000000000000000000000000000000000000000000000000600052601260045260246000fd5b6000610aca82610682565b9150610ad583610682565b925082610ae557610ae4610a90565b5b828204905092915050565b600069ffffffffffffffffffff82169050919050565b610b0f81610af0565b8114610b1a57600080fd5b50565b600081519050610b2c81610b06565b92915050565b6000819050919050565b610b4581610b32565b8114610b5057600080fd5b50565b600081519050610b6281610b3c565b92915050565b600080600080600060a08688031215610b8457610b836105f2565b5b6000610b9288828901610b1d565b9550506020610ba388828901610b53565b9450506040610bb488828901610881565b9350506060610bc588828901610881565b9250506080610bd688828901610b1d565b9150509295509295909350565b6000610bee82610b32565b9150610bf983610b32565b9250827f7fffffffffffffffffffffffffffffffffffffffffffffffffffffffffffffff0482116000841360008413161615610c3857610c37610a07565b5b817f80000000000000000000000000000000000000000000000000000000000000000583126000841260008413161615610c7557610c74610a07565b5b827f80000000000000000000000000000000000000000000000000000000000000000582126000841360008412161615610cb257610cb1610a07565b5b827f7fffffffffffffffffffffffffffffffffffffffffffffffffffffffffffffff0582126000841260008412161615610cef57610cee610a07565b5b82820290509291505056fea26469706673582212205913cd890954f5ac3fdc28b29122f400a464ab1f2861db6a57d4397024da247264736f6c63430008090033",
  "devdoc": {
    "kind": "dev",
    "methods": {},
    "version": 1
  },
  "userdoc": {
    "kind": "user",
    "methods": {},
    "version": 1
  },
  "storageLayout": {
    "storage": [
      {
        "astId": 54,
        "contract": "contracts/Piggybank.sol:PiggyBank",
        "label": "owner",
        "offset": 0,
        "slot": "0",
        "type": "t_address_payable"
      },
      {
        "astId": 61,
        "contract": "contracts/Piggybank.sol:PiggyBank",
        "label": "USD",
        "offset": 0,
        "slot": "1",
        "type": "t_uint256"
      },
      {
        "astId": 64,
        "contract": "contracts/Piggybank.sol:PiggyBank",
        "label": "priceFeed",
        "offset": 0,
        "slot": "2",
        "type": "t_contract(AggregatorV3Interface)45"
      }
    ],
    "types": {
      "t_address_payable": {
        "encoding": "inplace",
        "label": "address payable",
        "numberOfBytes": "20"
      },
      "t_contract(AggregatorV3Interface)45": {
        "encoding": "inplace",
        "label": "contract AggregatorV3Interface",
        "numberOfBytes": "20"
      },
      "t_uint256": {
        "encoding": "inplace",
        "label": "uint256",
        "numberOfBytes": "32"
      }
    }
  }
}